S01200004B6F746C7961724C61622E737265631D
S113000045C0000053C0000051C000004FC00000B4
S11300104DC000004BC0000049C0000047C00000B4
S113002045C0000043C0000041C000003FC00000C4
S11300303DC000003BC0000039C000004BC00000C0
S113004035C0000033C0000031C000002FC00000E4
S11300502DC000002CC0000029C0000027C00000F3
S113006025C0000023C0000021C000001FC0000004
S11300701DC000001BC000003EC0000017C00000EF
S113008015C0000013C0000011C0000011241FBEE1
S1130090CFEFD0E1DEBFCDBF21E0A0E0B1E001C0F1
S11300A01D92A930B207E1F714D058C0A9CF1F920E
S11300B00F920FB60F9211248F9384B18093010194
S11300C085B1809300018F910F900FBE0F901F9008
S11300D01895FFCF1F920F920FB60F9211248F9392
S11300E0809102018F5F809302018F910F900FBE68
S11300F00F901F9018951F920F920FB60F92112414
S11301000BB60F928F939F93EF93FF9390919C0064
S11301109E3E11F41092040180910801811113C0D4
S113012080910401833078F410920301E82FF0E009
S1130130EB5FFE4F90838F5F80930401833019F44B
S113014081E080930301FF91EF919F918F910F9034
S11301500BBE0F900FBE0F901F901895F894FFCF11
S9030000FC
