:1000000045C0000053C0000051C000004FC00000B8
:100010004DC000004BC0000049C0000047C00000B8
:1000200045C0000043C0000041C000003FC00000C8
:100030003DC000003BC0000039C000006EC00000A1
:1000400035C0000033C0000031C000002FC00000E8
:100050002DC000002CC0000029C0000027C00000F7
:1000600025C0000023C0000021C000001FC0000008
:100070001DC000001BC00000B7C0000017C000007A
:1000800015C0000013C0000011C0000011241FBEE5
:10009000CFEFD0E1DEBFCDBF21E0A0E0B1E001C0F5
:1000A0001D92A031B207E1F72FD0DCC0A9CF1F927B
:1000B0000F920FB60F9211240BB60F922F938F93BE
:1000C0009F93EF93FF9394B1E3E0F1E0918385B1C7
:1000D000808320910001211104C0E1E0F1E09183CF
:1000E0008083FF91EF919F918F912F910F900BBE85
:1000F0000F900FBE0F901F90189586B18E6E86B927
:1001000087B1806C87B90895F8DF60E072EC81E018
:1001100090E01AD09CD02BD0FDCF1F920F920FB63B
:100120000F9211248F93809105018F5F80930501B9
:100130008F910F900FBE0F901F9018956091050141
:1001400070E080E090E008950F931F93072F182F21
:10015000292F3327009398006093990088E98093B2
:100160009A0086E080939D001F910F9108950F9350
:100170001F93E4DF00910C0110910D0120910E01FD
:1001800030910F01DC01CB01801B910BA20BB30B53
:10019000893E9340A105B10520F181E080930001E3
:1001A000E0910701E23080F480919B0085FF19C047
:1001B000F0E0EF5FFE4F808180939C00809107010B
:1001C0008F5F809307010DC0B9DF60930C017093BE
:1001D0000D0180930E0190930F0110920701109270
:1001E00000011F910F9108951F920F920FB60F9269
:1001F00011240BB60F928F939F93EF93FF939091DF
:100200009C009E3E11F41092070180910B01811118
:1002100013C080910701833078F410920601E82F13
:10022000F0E0E85FFE4F90838F5F8093070183309B
:1002300019F481E080930601FF91EF919F918F91D6
:100240000F900BBE0F900FBE0F901F901895F89453
:1002500080910601813021F480930B0110920601F8
:0802600078940895F894FFCF93
:00000001FF
